:100000000C942A000C9447000C9447000C94470071
:100010000C9447000C9447000C9447000C94470044
:100020000C9447000C9447000C9447000C94470034
:100030000C9447000C9447000C9447000C94470024
:100040000C9447000C9447000C9447000C94470014
:100050000C94470011241FBECFE5D8E0DEBFCDBF12
:1000600010E0A0E6B0E0E8E7FAE102C005900D92EA
:10007000A237B107D9F725E0A2E7B0E001C01D9291
:10008000A837B207E1F70E94AA090C943A0D0C9424
:1000900000004F925F926F927F928F929F92AF92E9
:1000A000BF92EF92FF921F93CF93DF93CDB7DEB74E
:1000B000E6970FB6F894DEBF0FBECDBF7C010E945D
:1000C0002D03182F8111AAC046E350E0BE016F5FD7
:1000D0007F4FC7010E943C04C69709F0A1C08981E7
:1000E000823409F09FC08A818D3409F09DC08B85D0
:1000F0004C8550E060E070E0762F652F542F442748
:10010000482B8D8590E0A0E0B0E0DC01992788279E
:10011000842B952BA62BB72B4E8550E060E070E02A
:10012000742F662755274427482B592B6A2B7B2B86
:100130008B898C88912CA12CB12CBA2CA92C982CB1
:100140008824882A8D8990E0A0E0B0E0DC0199271E
:10015000882788299929AA29BB298E88912CA12C26
:10016000B12CB82CAA2499248824882A992AAA2A4E
:10017000BB2A2F89888D90E0A0E0B0E0BA2FA92F8C
:10018000982F88272C013D01422A898D90E0A0E01C
:10019000B0E0DC019927882784299529A629B72969
:1001A0004A8C512C612C712C742C662455244424C7
:1001B00084299529A629B729ED8D2E8D30E0322F7F
:1001C00022272E2B2831310589F5F70144875587E1
:1001D00066877787808A918AA28AB38ABB2344F490
:1001E000882499245401881A990AAA0ABB0A02C0D1
:1001F0004C015D01F701848A958AA68AB78A318FFE
:10020000208F21E0892B8A2B8B2B09F420E0F7012A
:10021000228F408751876287738709C011E007C02A
:1002200012E005C013E003C013E001C014E0812F09
:10023000E6960FB6F894DEBF0FBECDBFDF91CF912B
:100240001F91FF90EF90BF90AF909F908F907F9005
:100250006F905F904F9008958F929F92AF92BF9250
:10026000CF92DF92EF92FF920F931F93CF93DF9382
:10027000EC0189018A8D882381F08C899D89AE8962
:10028000BF896C017D01C41AD50AE60AF70AB701D5
:10029000A6014150510961097109C888D988EA88C5
:1002A000FB882FEFC21AD20AE20AF20AD701C6016E
:1002B000880F991FAA1FBB1FC80ED91EEA1EFB1E5E
:1002C0008CEFC8228C849D84AE84BF849A01AB01DC
:1002D000C701B6010E94A10CDC01CB01880D991D5C
:1002E000AA1DBB1D88879987AA87BB87B1E0CB165B
:1002F000B2E0DB06E104F10408F05BC0A60162E7AE
:1003000070E0CE010E943C048C159D0509F053C09D
:1003100040E050E0BA0141C0DB01CA01880F991FDB
:10032000AA1FBB1F840F951FA61FB71FFC01EE5805
:10033000FF4F30816C017D012FEFC21AD20AE20A11
:10034000F20AF601EE58FF4F20810296A11DB11D61
:10035000FC01EE58FF4F808186958695869590E04A
:1003600026952695A32FA695A695A695FA01EE0F9C
:10037000FF1FE00FF11F982F8827990F990F990FF2
:10038000B0E22B9F90011124822B932B8A2B918317
:1003900080834F5F5F4F6F4F7F4F88899989AA890C
:1003A000BB89481759076A077B0708F4B5CF80E077
:1003B00003C081E001C082E0DF91CF911F910F91D6
:1003C000FF90EF90DF90CF90BF90AF909F908F9075
:1003D0000895DC0190E006C0FB01E90FF11D20E269
:1003E00020839F5F9B30C0F320E030E00FC09E323F
:1003F00059F04FE9490F4A3108F49052FB01E20FDE
:10040000F11D90832F5F01C028E03F5FFD01E30FE6
:10041000F11D9081992311F02B3048F30895AC0120
:1004200028E001C02150222359F0FA01E20FF11D0A
:10043000319780818032B1F383E003C0815001C0E5
:1004400083E08823A1F0FA01E80FF11D9781903233
:10045000A9F330E090E00DC0FB01E90FF11DDA01D6
:10046000A30FB11DAC91A0833F5F9F5F02C030E03E
:1004700090E0321710F49C3078F38823D1F09C3050
:10048000C0F4FB01E90FF11D2EE220839F5F20E005
:100490000CC0DB01A90FB11DE22FF0E03896E40F8C
:1004A000F51F30813C932F5F9F5F281710F49C301D
:1004B00080F3FB01E90FF11D10820895FC01A0E01B
:1004C000B0E004C08E3209F4DF01319680818111E1
:1004D000F9CF1097D9F011968C911197823411F0C1
:1004E0008236B1F412968C9112978D3411F08D36BC
:1004F00089F413968C911397803511F0803761F44D
:1005000014968C91882351F080E0089580E008953E
:1005100080E0089580E0089580E0089581E00895E6
:1005200042E752E00E94910A08954F925F926F92C3
:100530007F928F929F92AF92BF92CF92DF92EF9273
:10054000FF920F931F93CF93DF9360E070E0CB0196
:100550000E949002D82E81116CC0E2E7F2E0838500
:10056000248530E0322F2227282B45858685C785B4
:10057000D0E0DC2FCC278E01082BC08851898289DE
:1005800090E0982F8827852B5689E788F12CFE2C40
:10059000EE24E52AC4E6D5E0398728874A87A0E01B
:1005A000B0E08F87988BA98BBA8B880F991FAA1FF1
:1005B000BB1F880F991FAA1FBB1F880F991FAA1F57
:1005C000BB1F880F991FAA1FBB1F880F991FAA1F47
:1005D000BB1FA90141505109BC01CD01640F751F1A
:1005E000811D911D40E050E00E94D90C49015A0143
:1005F0002801612C712C4B865C866D867E86970166
:10060000AC2DB0E00E94030DDC01CB01840D951DE3
:10061000A61DB71D8C839D83AE83BF83880D991D56
:10062000AA1DBB1D88839983AA83BB8380E18B8B22
:1006300002C0DD24D3948D2DDF91CF911F910F91B6
:10064000FF90EF90DF90CF90BF90AF909F908F90F2
:100650007F906F905F904F9008952F923F924F92AE
:100660005F926F927F928F929F92AF92BF92CF9242
:10067000DF92EF92FF920F931F93CF93DF93CDB74B
:10068000DEB72C970FB6F894DEBF0FBECDBF1C01AE
:10069000CB01BE016F5F7F4F0E94E901E4E6F5E008
:1006A00084809580A680B780208531856901D694A5
:1006B000C794D694C794D694C794D694C794D69426
:1006C000C79487859089A189B289880F991FAA1F2D
:1006D000BB1F880F991FAA1FBB1F880F991FAA1F36
:1006E000BB1F880F991FAA1FBB1F880F991FAA1F26
:1006F000BB1FA90141505109BC01CD01640F751FF9
:10070000811D911D40E050E00E94D90C240135016B
:10071000420E531E641E751E87C0C501B4010E949F
:10072000900281118AC0E12CF12C75C08701000F65
:10073000111F02951295107F1027007F10270E5869
:100740001D4FF8018081882309F47AC0853E09F4A1
:100750005FC0838583FD5CC0F82FF071FC8784FD4A
:1007600057C08F3009F454C04BE050E0BE016F5FBA
:100770007F4FC8010E94240D892B09F049C0F80160
:10078000228D838D90E0982F8827822B248945899C
:1007900050E0542F4427422B60E070E0BA01552707
:1007A0004427A0E0B0E0482B592B6A2B7B2B848D8B
:1007B000458C512C612C712C762C652C542C4424A6
:1007C000482A868D90E0A0E0B0E0DC0199278827D8
:1007D000482A592A6A2A7B2AC78CD12CE12CF12C71
:1007E000FC2CEE24DD24CC24930182010C291D294C
:1007F0002E293F29F101408351836283738304834F
:1008000015832683378310861186128613861AC0B5
:10081000FFEFEF1AFF0AEC14FD0408F487CF8FEF07
:10082000881A980AA80AB80A84149504A604B7047A
:1008300008F473CF91E09C8705C0E1E0EC8702C02B
:10084000F1E0FC878C852C960FB6F894DEBF0FBEC6
:10085000CDBFDF91CF911F910F91FF90EF90DF906F
:10086000CF90BF90AF909F908F907F906F905F9050
:100870004F903F902F9008952F923F924F925F920A
:100880006F927F928F929F92AF92BF92CF92DF92A0
:10089000EF92FF920F931F93CF93DF93CDB7DEB705
:1008A00060970FB6F894DEBF0FBECDBF9E878D87D1
:1008B0007C876B878A01DC011896CD90DD90ED90E6
:1008C000FC901B97FC0184819581A681B781C81695
:1008D000D906EA06FB0608F0D7C0B701A601400F0B
:1008E000511F611D711D84179507A607B70718F4DE
:1008F0008C010C191D0920916C0530916D053A870A
:1009000029874901A12CB12C80916E05282F30E058
:1009100040E050E02D833E834F835887A50194012A
:100920006D817E818F8198850E94A10C9B01AC0115
:10093000C701B6010E94D90C69837A838B839C839B
:10094000ED85FE8580819181A281B38119012A0103
:10095000280E391E4A1E5B1EA4E6B5E0CD90DD9040
:10096000ED90FC90C201B1016250710981099109B9
:100970002D813E814F8158850E94A10CC60ED71E45
:10098000E81EF91E69817A818B819C81A501940101
:100990000E94D90C49015A0169837A838B839C8315
:1009A000C20ED31EE41EF51E612C712C58C02D8181
:1009B0003E814F81588582169306A406B506E0F065
:1009C000C0906405D0906505E0906605F0906705DD
:1009D000C201B10161507109810991090E94A10C04
:1009E000C60ED71EE81EF91E3FEF231A330A430A2C
:1009F000530A812C912C5401C701B6010E94900228
:100A0000811145C049855A8589819A81481B590BB6
:100A1000588B4F870417150710F4188B0F876981BF
:100A20007A816E587D4F4F8558898B859C85860DC0
:100A3000971D0E94310DAF85B8896A0E7B1E0A1B77
:100A40001B0BBFEFCB1ADB0AEB0AFB0AEFEF8E1A88
:100A50009E0AAE0ABE0A19821A821B821C820115E6
:100A6000110509F0A4CFED85FE8580859185A285CD
:100A7000B385860D971DA11DB11D80879187A28723
:100A8000B387862D972D05C080E090E002C08FEFE0
:100A90009FEF60960FB6F894DEBF0FBECDBFDF911B
:100AA000CF911F910F91FF90EF90DF90CF90BF906B
:100AB000AF909F908F907F906F905F904F903F90FE
:100AC0002F9008954F925F926F927F92AF92BF9254
:100AD000CF92DF92EF92FF920F931F93CF93DF930A
:100AE000CDB7DEB761970FB6F894DEBF0FBECDBFAE
:100AF0005C01C62EE4E6F5E0448055806680778090
:100B0000208531857901F694E794F694E794F6947C
:100B1000E794F694E794F694E79487859089A18901
:100B2000B289880F991FAA1FBB1F880F991FAA1F80
:100B3000BB1F880F991FAA1FBB1F880F991FAA1FD1
:100B4000BB1FAC01BD01440F551F661F771FC901B4
:100B50000197480F591F611D711DDB01CA0140E05B
:100B600050E0BC01CD010E94D90CC301B201620F5B
:100B7000731F841F951F6E877F87888B998BD12C5D
:100B80005FC0C301B2010E949002811163C000E006
:100B900010E04DC0F801EE0FFF1FE295F295F07FD7
:100BA000FE27E07FFE27EE58FD4F8081882309F461
:100BB00051C0853ED1F1838583FD37C084FD35C0AA
:100BC0008F3099F1BE016F5F7F4FCF010E940F02FE
:100BD000CE0101960E945E02882339F1DC1468F090
:100BE00039C095017DE0D79E200D311D1124F901FA
:100BF000E40FF51F90838F5F01C080E0482F50E025
:100C0000E1E0F0E0EC0FFD1FE40FF51F9081992368
:100C100011F08C3030F3F5018DE0D89EE00DF11D20
:100C20001124E40FF51F1082D3940F5F1F4F0E1590
:100C30001F0508F4AFCF9FEF491A590A690A790ACC
:100C40004E855F856889798944165506660677065C
:100C500008F497CF8D2D61960FB6F894DEBF0FBEC6
:100C6000CDBFDF91CF911F910F91FF90EF90DF905B
:100C7000CF90BF90AF907F906F905F904F9008950E
:100C8000861708F045C02FEF829FC001112470E045
:100C90000E94B10C862F880F680F6535A0F4962F3F
:100CA000990F292F260F70E0CB019695982F882752
:100CB00097958795861B970B65E570E00E94C50C9C
:100CC000605880E010C06A3A40F46555862F880F5E
:100CD000860F682F60952FEF06C06A5A862F880FFF
:100CE000680F2FEF8FEF887F90E0582F4427922FC7
:100CF0009C7F892F90E0880F991F880F991F880F7C
:100D0000991F842B952B669566956695862B08957D
:100D100080E090E00895861708F04BC02FEF829F87
:100D2000C001112470E00E94B10C862F972F8032F1
:100D3000910530F4660F660F660F90E024E125C040
:100D40008034910548F46052962F990F690F28E27C
:100D5000260F6FEF90E019C08038910538F4262FE8
:100D6000220F220F622F609590E00FC0803C91050A
:100D700040F490E8960F892F880F980F60E02FEFCE
:100D800004C0660F660F9FEF2FEF287F30E0322FF1
:100D900022279C7F892F90E0880F991F880F991F29
:100DA000880F991F822B932B669566956695862BE7
:100DB000089580E090E0089590B381E0292F21709C
:100DC00090FF80E0982F80916200813061F42111C2
:100DD0000CC0EFE3FCE93197F1F700C00000809B05
:100DE00006C080E005C080E003C080E001C081E073
:100DF00090936200089590B381E0292F227091FFB3
:100E000080E0982F80916100813061F421110CC045
:100E1000EFE3FCE93197F1F700C00000819B06C0C9
:100E200080E005C080E003C080E001C081E09093D5
:100E300061000895AF92BF92CF92DF92EF92FF923E
:100E40000F931F93CF93DF93CDB7DEB7C850D14038
:100E50000FB6F894DEBF0FBECDBF7C01FC018089C8
:100E60009189A289B38985389105A105B10540F022
:100E700084E890E0A0E0B0E0808B918BA28BB38BF4
:100E8000F70184899589A689B789833A9105A105D7
:100E9000B10540F082EA90E0A0E0B0E0848B958B51
:100EA000A68BB78BF701408951896289738984E8E1
:100EB00090E0A0E0B0E0841B950BA60BB70BB695B5
:100EC000A79597958795B82E44895589668977891E
:100ED00082EA90E0A0E0B0E0841B950BA60BB70B74
:100EE000B695A79597958795A82EC12CD12C38C07B
:100EF0009E012F5F3F4FC7010E942C0181113EC010
:100F0000F70140894B0D41506A2D6C0D262F8B2D1A
:100F10000E94290C0E94630C00E010E00FC0F80151
:100F2000EE0FFF1F81E090E08C0F9D1FE80FF91F6F
:100F3000808191810E94680C0F5F1F4FC801A0E063
:100F4000B0E0F70140895189628973898417950758
:100F5000A607B70720F30E94720CFFEFCF1ADF0A33
:100F6000A60160E070E0F70184899589A689B789B8
:100F7000481759076A077B0708F4BACFC85FDE4FE6
:100F80000FB6F894DEBF0FBECDBFDF91CF911F919A
:100F90000F91FF90EF90DF90CF90BF90AF900895AA
:100FA0008091910481111AC00E94480A91E0811138
:100FB00090E090939004992371F00E949502811122
:100FC0000AC081E080938F0460E183E994E00E948D
:100FD00062058093920481E0809391048091900453
:100FE000882321F080918F0481110EC084E091E26A
:100FF0000E94750C2FEF82E597E0215080409040D1
:10100000E1F700C0000008958091920481110EC0A4
:101010008FE190E00E94750C2FEF84E39CE021505B
:1010200080409040E1F700C00000089590918E0448
:10103000981710F010928E0460918E042DE0629F3C
:10104000B00111246D567B4F83E794E00E94490064
:10105000811105C083E794E00E941A0704C080E074
:1010600098EF0E94750C80918E048F5F80938E04A0
:1010700090919204891710F010928E048FEF97E8E8
:1010800023E1815090402040E1F700C00000089526
:101090003F924F925F926F927F928F929F92AF9208
:1010A000BF92CF92DF92EF92FF920F931F93CF9355
:1010B000DF93CDB7DEB766970FB6F894DEBF0FBEED
:1010C000CDBF80916305813019F4E3E6F0E002C002
:1010D000EAE6F0E006814081518124813581BA0140
:1010E000621B730B788B6F87420F531F8281938132
:1010F000DC01A21BB30BBA8BA98B280F391FCA01C5
:10110000861B970B63E870E00E94C50C7A8769879D
:10111000C90149895A89841B950B61EA70E00E94D4
:10112000C50C7C8B6B8B1E861D86302ED7C06B89C1
:101130007C89AD85BE856A9FC0016B9F900D7A9FAB
:10114000900D112429893A89280F391F3C872B8754
:101150002D8543E8622F80E00E94290C0E94630CD9
:101160004F8558895E834D8318861F82A9C0F091F0
:101170006305F1110BC06B857C857A8369830D81D2
:101180001E81812C912CC12CD12C0AC08B849C8473
:10119000CD80DE808FE391E09A8389830AE919EF9D
:1011A000E0E0A981BA81BE8BAD8B6DC09601DD0CEC
:1011B000440B550B29833A834B835C83CA01B901E5
:1011C0000E94A10C6B017C010B2EBBE0F594E7940F
:1011D000D794C794BA95D1F7B02D092C000CAA0862
:1011E000BB08A5019401C501B4010E94A10C2B010B
:1011F0003C01032E3BE075946794579447943A95CD
:10120000D1F7302D69817A818B819C810E94A10C5C
:10121000DC01CB01072E7BE0B595A79597958795C7
:101220007A95D1F7702DC418D508C00ED11EBC0117
:10123000660F771F8D889E88860E971E9601D601B1
:101240000E94FB0C2B013C01032E3BE0759467943C
:10125000579447943A95D1F7302D9401D4010E94C8
:10126000FB0CDC01CB01072E7BE0B595A79597958C
:1012700087957A95D1F7702DB201680F791F61308B
:10128000704224F4EF5FE31508F490CFF11105C02C
:10129000632D8E2F0E94400604C0632D8E2F0E9466
:1012A0008B060E94680C4D815E8169857A85460FA8
:1012B000571F5E834D838F819885019698878F8312
:1012C000AF81B885A438B10508F451CF0E94720CE3
:1012D0002D853E852F5F3F4F3E872D874D855E854F
:1012E000423A510508F423CF66960FB6F894DEBF54
:1012F0000FBECDBFDF91CF911F910F91FF90EF9067
:10130000DF90CF90BF90AF909F908F907F906F9025
:101310005F904F903F90089580917204882331F040
:101320009091600080916305981751F00E944808E1
:1013300081E080937204809163058093600008953A
:101340002FEF80E792E0215080409040E1F700C00D
:101350000000089584E00E94EB0A0E94B40B81B360
:101360008E7F81BB82B3816082BB81B38D7F81BB65
:1013700082B3826082BBC1E00E94DC06882349F010
:1013800081E0C13009F480E0C82F80E090E00E9445
:10139000750CC13071F40E94FB06882351F09091C6
:1013A000630581E089278093630580E090E00E94D7
:1013B000750CC11103C00E94D007DECF0E948C09BA
:1013C000DBCFCF93DF93D82FC0E004C08FEF0E9414
:1013D000320BCF5FCD17D0F3DF91CF910895EF920D
:1013E000FF920F931F93CF93DF93E82ED42F152FE7
:1013F000062FF72EC22F0E94430B8FEF0E94320B55
:101400000E943F0B8FEF0E94320B8E2D80640E9452
:10141000320B8F2D0E94320B802F0E94320B812FB6
:101420000E94320B8D2F0E94320B8C2F81600E9404
:10143000320BCFEF8FEF0E94320B882314F4C15090
:10144000C9F7DF91CF911F910F91FF90EF90089511
:10145000CF92DF92EF92FF92CF93DF93C82F6A0172
:101460007B01D22F21E040E050E0BA0187E30E94E7
:10147000EF09823030F42D2FB701A6018C2F0E9486
:10148000EF09DF91CF91FF90EF90DF90CF9008951B
:10149000CF93DF930E94430B8AE00E94E109C0E0F2
:1014A00025E940E050E0BA0180E00E94EF09CF5FFB
:1014B000813011F0C436A0F3813021F00E94430B3B
:1014C00081E02CC0C0E021E040E050E0BA0189E2B8
:1014D0000E94280AD82FCF5F882311F0C83C98F3C8
:1014E0000E94430B8FEF0E94320BD11114C00E9457
:1014F0003F0B21E040E052E060E070E080E10E94BC
:10150000EF09C82F0E94430B8FEF0E94320BCC23B0
:1015100021F081E003C081E001C080E0DF91CF9144
:1015200008958F929F92AF92BF92EF92FF920F9386
:101530001F93CF93DF937A014B015C01072E79E073
:10154000880C991CAA1CBB1C7A95D1F7702D0E949F
:101550003F0B21E0B501A40181E10E94EF0988233E
:1015600021F00E94430B81E02BC0CFEFDFEF8FEF24
:101570000E94320B8E3F11F02197C9F7CD2B71F4E9
:101580000E94430B82E01CC087010C0F1D1F8FEFD0
:101590000E94320BF8018083219602C0C0E0D0E0A7
:1015A000C115F2E0DF0780F38FEF0E94320B8FEF5F
:1015B0000E94320B0E94430B8FEF0E94320B80E09F
:1015C000DF91CF911F910F91FF90EF90BF90AF905F
:1015D0009F908F90089597B3906A97BB97B390614F
:1015E00097BB91B3946091BB97B3926097BB97B34D
:1015F000916097BB98B3906198BB92B3946092BB93
:1016000097B39F7B97BB883081F028F4823051F0EC
:101610008430D1F016C0803271F0803479F080319E
:1016200081F406C091E080E011C091E081E00EC03D
:1016300090E081E00BC091E082E008C090E082E0A1
:1016400005C090E083E002C090E080E080658DB945
:10165000992321F08EB181608EB908958EB18E7F6D
:101660008EB908958FB9779BFECF8FB1089588B357
:101670008F7E88BB089588B3806188BB089582B34C
:101680008B7F82BB089582B3846082BB089588B348
:101690008D7F88BB089588B3826088BB0895CF93FF
:1016A000DF93CDB7DEB728970FB6F894DEBF0FBE35
:1016B000CDBF88B38E7F88BB1D821E821F82188695
:1016C0000BC08D819E81AF81B8850196A11DB11D92
:1016D0008D839E83AF83B8878D819E81AF81B885CE
:1016E00080349F41A105B10560F388B3816088BB58
:1016F00019821A821B821C820BC089819A81AB815C
:10170000BC810196A11DB11D89839A83AB83BC83E3
:1017100089819A81AB81BC8180349F41A105B1054B
:1017200060F328960FB6F894DEBF0FBECDBFDF91F1
:10173000CF910895CF93C82F0E944B0B0E94370B77
:101740008C2F0E94320B0E943B0BCF910895CF93B8
:10175000C82F0E94470B0E94370B8C2F0E94320B20
:101760000E943B0BCF910895CF93DF93CDB7DEB7A7
:101770002C970FB6F894DEBF0FBECDBF0E944F0B63
:1017800081E00E94A70B19861A861B861C860BC057
:1017900089859A85AB85BC850196A11DB11D898778
:1017A0009A87AB87BC8789859A85AB85BC8580384D
:1017B0009843A140B10560F381E10E94A70B1D820F
:1017C0001E821F8218860BC08D819E81AF81B885D5
:1017D0000196A11DB11D8D839E83AF83B8878D8136
:1017E0009E81AF81B88580389843A140B10560F3F0
:1017F0008AE30E94A70B85E00E949A0B86E30E9471
:10180000A70B80E00E949A0B89E20E94A70B198225
:101810001A821B821C820BC089819A81AB81BC8198
:101820000196A11DB11D89839A83AB83BC838981F5
:101830009A81AB81BC8180389843A140B10560F3A7
:101840002C960FB6F894DEBF0FBECDBFDF91CF91BF
:1018500008950F931F93CF93DF93082FD62F142F44
:10186000C22F8AE20E94A70B0E944B0B0E94370BEB
:1018700080E00E94320B802F0E94320B80E00E9499
:10188000320B812F0E94320B0E943B0B8BE20E9495
:10189000A70B0E944B0B0E94370B80E00E94320B7B
:1018A0008D2F0E94320B80E00E94320B8C2F0E9401
:1018B000320B0E943B0B8CE20E94A70BDF91CF9171
:1018C0001F910F9108950E944B0B0E94370B0895B2
:1018D000CF93C82F892F0E94320B8C2F0E94320B7E
:1018E000CF9108950E943B0B0895EF92FF920F93C2
:1018F0001F93CF93DF938C0121EA43E860E080E0FF
:101900000E94290C0E94630CE12CF12C0DC0C8012F
:101910000E94680C219602C0C0E0D0E0C438D10516
:10192000B0F38FEFE81AF80A82EAE816F104A0F3A0
:101930000E94720CDF91CF911F910F91FF90EF9059
:101940000895DB018F939F930E94190DBF91AF9172
:10195000A29F800D911DA39F900DB29F900D112409
:101960000895AA1BBB1B51E107C0AA1FBB1FA617E6
:10197000B70710F0A61BB70B881F991F5A95A9F738
:1019800080959095BC01CD01089597FB072E16F424
:10199000009407D077FD09D00E94B10C07FC05D058
:1019A0003EF4909581959F4F0895709561957F4F76
:1019B0000895A1E21A2EAA1BBB1BFD010DC0AA1F90
:1019C000BB1FEE1FFF1FA217B307E407F50720F0A8
:1019D000A21BB30BE40BF50B661F771F881F991F23
:1019E0001A9469F760957095809590959B01AC016C
:1019F000BD01CF0108950E94030D332312F48A1B09
:101A00009B0B0C94140DA29FB001B39FC001A39F28
:101A1000700D811D1124911DB29F700D811D112427
:101A2000911D08950E94030DB7FF0895821B930B2B
:101A300008950E94030DA59F900DB49F900DA49F43
:101A4000800D911D11240895FB01DC0104C08D91CE
:101A50000190801921F441505040C8F7881B990B20
:101A60000895FB01DC0102C001900D9241505040ED
:081A7000D8F70895F894FFCFA8
:101A7800FF010100000000000C7800FA0000000CD3
:021A88007800E4
:00000001FF
